:020000040800F2
:1000000008FF0020DD010008A51F0008A71F000849
:10001000A91F0008AB1F0008AD1F0008000000006A
:100020000000000000000000000000004501000882
:10003000AF1F00080000000089010008B11F000880
:10004000F7010008F7010008F7010008F7010008B0
:10005000F7010008F7010008F7010008F7010008A0
:10006000F7010008F7010008F7010008F701000890
:10007000F7010008F7010008F7010008F701000880
:10008000F7010008F7010008F7010008F701000870
:10009000F7010008F7010008F7010008F701000860
:1000A000F7010008F7010008F7010008F701000850
:1000B000F7010008F7010008F7010008F701000840
:1000C000F7010008F7010008F7010008F701000830
:1000D000F7010008F7010008F7010008F701000820
:1000E000F7010008F7010008F7010008F701000810
:1000F000F7010008F7010008F7010008F701000800
:10010000F7010008C51F0008F7010008F701000803
:10011000F7010008F7010008F7010008F7010008DF
:10012000F7010008F7010008F7010008F7010008CF
:10013000DFF80CD008F012FF00480047331D00081C
:1001400008FF0020224B19680868B0E8F00F80F320
:100150000988BFF36F8F4FF0000080F311884EF0D5
:100160000D0E70470000000006480068006880F32C
:10017000088862B661B6BFF34F8FBFF36F8F00DFA1
:1001800000BF00BF08ED00E0EFF30980BFF36F8F01
:100190000F4B1A6820E9F00F106008B54FF05000BF
:1001A00080F31188BFF34F8FBFF36F8F07F0D1FB40
:1001B0004FF0000080F31188BDE808401968086816
:1001C000B0E8F00F80F30988BFF36F8F704700BF6E
:1001D000B0000020EFF3058070470000064880471C
:1001E00006480047FEE7FEE7FEE7FEE7FEE7FEE71C
:1001F000FEE7FEE7FEE7FEE7A10200083101000886
:100200000CB500224C4800920192016841F4803103
:1002100001604FF4A063016801F40031019100997D
:10022000491C0091019911B900999942F3D10168D3
:10023000890333D50121019140490A6842F0100237
:100240000A600A6822F003020A600A6842F00202A9
:100250000A604168416041684160416841F48061E1
:100260004160416821F47C114160416841F4E8112A
:100270004160016841F08071016001688901FCD52D
:10028000416821F003014160416841F00201416091
:100290004168C1F381010229FAD10CBD01920CBD64
:1002A000254810B5016841F0010101604168244A08
:1002B000114041600168234A11400160016821F446
:1002C00080210160416821F4FE0141604FF41F016B
:1002D0008160FFF795FF1C494FF00060086010BD7A
:1002E000154A10B55068194B10F00C01184803D08E
:1002F000042901D0082901D0036012E05168536835
:1003000001F470114FF0020413F4803F04EB9141AB
:1003100002D053689B0301D50E4B00E00B4B5943B1
:10032000016051680A4AC1F30311121D515C026851
:10033000CA40026010BD00000010024000200240D0
:100340000000FFF8FFFFF6FE08ED00E000127A0063
:100350000000002000093D002849084328490860A2
:10036000704730B50F23C27801780125F2B1244AD5
:10037000126801F1E02102F4E062C2F5E062120AC3
:10038000C2F10404D3404278A24084781C40144354
:10039000220181F80024007800F01F018D404009FF
:1003A000800000F1E020C0F8005130BD01F01F00D6
:1003B00085404809800000F1E020C0F8805130BD40
:1003C000104A114001430E48001F016070470C4A5B
:1003D000121D0029116801D0014300E08143116022
:1003E00070474FF0E0210428086903D020F0040092
:1003F0000861704740F00400FAE700000000FA05C9
:100400000CED00E080FFFF1FC54910B5884202D106
:10041000012144150AE0C349884202D10121041593
:1004200004E0C14988420AD10121CC03204600F0F2
:10043000F6FE2046BDE81040002100F0F0BE10BDE1
:1004400010B54268B94B0C791A400B6842EA042295
:10045000134343608268B64B1A40D1E902432343F9
:100460004C7942EA440213438360C26A097C22F455
:100470007002491EC9B242EA0151C16210BD002199
:100480000160017141718160C16001210174704797
:100490000029816802D041F0010101E021F0010151
:1004A000816070470029816802D041F4807101E0C9
:1004B00021F4807181607047002A4268C9B201D07E
:1004C0000A4300E08A4342607047816841F00801B6
:1004D00081607047014600208968090700D5012026
:1004E0007047816841F00401816070470146002037
:1004F0008968490700D5012070470029816802D02A
:1005000041F4A00101E021F4A0018160704701469F
:1005100000208968490200D5012070474268491EC1
:1005200022F4604242EA413141607047002941684B
:1005300002D041F4006101E021F4006141607047A4
:1005400070B5072609290AD9C568A1F10A0404EB88
:100550004404A640B543A3401D43C56007E00569B8
:1005600001EB4104A640B543A3401D4305611F2391
:10057000072A09D2446B521E02EB820293409C432D
:1005800091400C43446370BD0D2A09D2046BD21F05
:1005900002EB820293409C4391400C43046370BD84
:1005A000C46A0D3A02EB820293409C4391400C4393
:1005B000C46270BD0029816802D041F4801101E05D
:1005C00021F4801181607047C06C80B2704754483C
:1005D0004C30006870470029416802D041F48061C6
:1005E00001E021F48061416070470029416802D038
:1005F00041F4805101E021F48051416070478268EC
:1006000022F4E0420A43826070470029816802D0E8
:1006100041F4004101E021F400418160704700296C
:10062000816802D041F4021101E021F402118160DD
:100630007047014600208968890200D50120704773
:1006400070B5072609290AD9C568A1F10A0404EB87
:100650004404A640B543A3401D43C56007E00569B7
:1006600001EB4104A640B543A3401D430561836BE4
:10067000C3F30154121B921C02EB82021F2494400C
:10068000A34391400B43836370BD826B491E22F4E8
:10069000401242EA01518163704708B50844009056
:1006A000026008BD08B5084428300090006880B298
:1006B00008BD42681F4B1A400A43426070474162BE
:1006C00082627047426822F01F020A43426070470C
:1006D000134908310028086802D040F4000001E006
:1006E00020F40000086070470246002012680A42A9
:1006F00000D001207047C9430160704710B5024621
:10070000002054680B0AC9B20C401168194202D08B
:10071000002C00D0012010BD6FEA1121016070474C
:100720000024014000280140003C0140FFFEF0FF92
:10073000FDF7F1FFFFFD3FFF01684FF6FE7211402C
:1007400001600021016041608160C1606A496A4ABC
:100750000839904203D1486840F00F0006E0664A2D
:100760001432904204D1486840F0F000486070476D
:10077000614A2832904203D1486840F47060F5E73E
:100780005D4A3C32904203D1486840F47040EDE746
:10079000594A5032904203D1486840F47020E5E74E
:1007A000554A6432904203D1486840F47000DDE756
:1007B000514A7832904203D1486840F07060D5E7E2
:1007C0004E4A111F904203D1086840F00F0006E026
:1007D0004A4A1432904204D1086840F0F0000860A0
:1007E0007047464A2832904203D1086840F470604E
:1007F000F5E7424A3C32904203D1086840F4704029
:10080000EDE73E4A50329042EAD1086840F4702049
:10081000E5E730B5026847F6F0739A430C6A8B68D7
:100820002343D1E904452C4323438C692343CC69FA
:1008300023434C6A23438C6A234313430360CA68EF
:1008400042600A6882604968C16030BD0021016071
:1008500041608160C160016141618161C16101628A
:100860004162816270470029016802D041F00101B4
:1008700002E04FF6FE72114001607047002A0268E4
:1008800001D00A4300E08A4302607047416070472C
:10089000406880B2704702460020D10002D5174957
:1008A000083901E0144908390968114200D00120D3
:1008B0007047C10003D51149091F086070470E49F0
:1008C00008394860704702460020D10002D50B4924
:1008D000083901E0084908390968114200D00120AF
:1008E0007047C10003D50549091F086070470249D8
:1008F00008394860704700000800024008040240C0
:100900008100A1F1C04140B143F2D20008606FF014
:1009100070404860C1F8040170474FF0204243F234
:10092000DB001060F3E710B5182340244FF020419E
:100930004FF0FC32102805D041F8803F4C608A60AF
:10094000CA6010BD0B664C668A66CA6610BD4FF061
:100950002040182140F8A01F002141604FF0FC31D9
:100960008160C1600161704710B5D0E90112114387
:10097000D0E903231A4311434269114382691143A9
:10098000C2691143026A1143426A1143826A1143E8
:10099000C26A1143026B114302689200A2F1C04285
:1009A00011608168082907D101688900A1F1C0415F
:1009B0000A6842F040020A60416BD1E9002342EA32
:1009C00003128B688C891B0243EA04431A430B8A87
:1009D00042EA03520B7D896942EA03620A430168D5
:1009E0008900A1F1C0414A60C16AB1F5804F08D0C9
:1009F00000686FF070418000A0F1C040C0F80411A1
:100A000010BD816BD1E9002342EA03128B680C8A86
:100A10001B0243EA04531A430B7D896942EA0362CD
:100A200000680A438000A0F1C040C0F8042110BD56
:100A300030B5D0E901121143D0E903231A43114321
:100A4000426941EA4221826941EA423141F00804A7
:100A5000C169D1E9002342EA03220B89097B1B0407
:100A600043EA01610A43016AD1E9003543EA0523FB
:100A70000D89097B2D0445EA01610B4301684FF0A4
:100A80002040102904D040F8804F8260C36030BD00
:100A900004668266C36630BD10B5D0E9001241EA33
:100AA00042218268102343EA423211434FF0204230
:100AB00042F8A01FC168D1E9003443EA04230C893D
:100AC000097B240444EA01610B4393600169D1E985
:100AD000003443EA04230C89097B240444EA0161BD
:100AE0000B43D3604069D0E9001341EA0321038935
:100AF000007B1B0443EA00600143116110BD10B587
:100B000000210222C0E900128160C16001614161DF
:100B10008161D202C161C0E908125200C0E90A2114
:100B20000163436B0F221A60436B5A60446BFF23CF
:100B3000A360446BE260446B2261446B6261446B6E
:100B4000A161846B2260846B6260846BA360836BA1
:100B5000DA60836B1A61836B5A61806B816110BDAF
:100B600010210160002141608160C160016141612B
:100B70008161C269FC211160C2695160C2699160E2
:100B8000C269D160026A1160026A5160026A9160B2
:100B9000006AC16070470021016041608160C268E5
:100BA000FC211160C2685160C2689160C268D16066
:100BB0000269116002695160026991600269D16045
:100BC0004269116042695160426991604069C16047
:100BD00070478000A0F1C0400029016802D041F0B8
:100BE000010101E0644A1140016070474FF020426A
:100BF00051B1102804D052F8800F40F004000AE0F0
:100C0000106E40F004000AE05B49C91E102804D0B1
:100C100052F8800F084010607047106E0840106650
:100C200070474FF02041002851F8A00F02D040F04B
:100C3000040002E0504AD21E1040086070474FF096
:100C4000204251B1102804D052F8800F40F04000EB
:100C50000AE0106E40F040000AE047493F39102892
:100C600004D052F8800F084010607047106E0840A2
:100C7000106670474FF02041102802D0D1F8940040
:100C80007047486F704710B54FF480744FF02043A1
:100C900072B1102804D0A04205D153F8840F04E0AB
:100CA000586E08430DE053F8A40F0843186010BDB8
:100CB000102804D0A04206D153F8840F05E0586EE6
:100CC0008843586610BD53F8A40F8843EEE70346E7
:100CD00000204FF02042102B08D0B3F5807F07D0C2
:100CE000D2F8A4200A4200D001207047526EF9E7E2
:100CF000D2F88420F6E74FF02042102807D0B0F554
:100D0000807F08D052F8A40F884310607047506E5F
:100D100088435066704752F8840FF5E70346002079
:100D20004FF02042102B0CD0B3F5807F0BD0D2F8BF
:100D3000A4200A4202EAD10102D0002900D00120F9
:100D40007047526EF5E7D2F88420F2E74FF0204268
:100D5000102808D0B0F5807F0AD052F8A40F20EAFE
:100D6000D10010607047506E20EAD1005066704785
:100D700052F8840FF3E70000FEFF0F008F4910B513
:100D8000884206D10121042000F049FA0021042004
:100D90003BE08B49884206D10121082000F03FFA50
:100DA0000021082031E08749884206D10121102026
:100DB00000F035FA0021102027E08349884206D14F
:100DC0000121202000F02BFA002120201DE07F4986
:100DD000884206D10121402000F021FA0021402064
:100DE00013E07B49884206D10121802000F017FAE8
:100DF0000021802009E0774988420AD18415012129
:100E0000204600F00CFA00212046BDE8104000F01A
:100E100006BA10BD10B50121084600F000FA002105
:100E2000BDE81040012000F0FAB9F0B5CC780022FE
:100E300004F00F03E40601D58C7823430C784FF0BF
:100E40000F0C14F0FF0F4FF0010E1BD005680E8839
:100E50000EFA02F42640A64210D196000CFA06F7CC
:100E600025EA070703FA06F5CE783D43282E02D07F
:100E7000482E02D002E0446100E00461521C082ABE
:100E8000E5D305600A88FF2A1CD94468002202F1D4
:100E900008060EFA06F50E882E40AE420ED19600D8
:100EA0000CFA06F7BC4303FA06F7CE783C43282E2B
:100EB00000D14561CE78482E00D10561521C082A28
:100EC000E5D34460F0BD4FF6FF71018002218170CF
:100ED0000421C17070470246002092680A4200D087
:100EE00001207047806880B2704702460020D268B7
:100EF0000A4200D001207047C06880B2704701618B
:100F00007047416170470AB10161704741617047A4
:100F1000C160704741F48032826181618261816980
:100F2000806970472C4B10B51A684FF680742240C8
:100F300042EA00100843186010BD2849C861704794
:100F4000F0B5254C002801DAE36900E06368450D3F
:100F50002E0185B2C0F30157B540C0F30342032F01
:100F600005D0C6020AD503269640B34307E023F016
:100F70007062636823F07063636002E0AB4343F028
:100F8000706201B12A43002801DAE261F0BD6260BB
:100F9000F0BD10B58A0721F003040F49120F214458
:100FA0000F238C6893409C438C608B689040034374
:100FB0008B6010BD0949C1F8DC0070470008014092
:100FC000000C0140001001400014014000180140D5
:100FD000001C0140002001400000014000002042B0
:100FE000A548016841F0010101604168A34A114030
:100FF00041600168A24A11400160016821F480212A
:101000000160416821F4FE0141604FF41F018160DD
:10101000704799490A6822F480320A600A6822F40B
:1010200080220A60B0F5803F07D0B0F5802F03D151
:10103000086840F4A02008607047086840F48030D9
:10104000F9E70346002059098B4A01290AD00229F1
:101050000AD0516A03F01F02012393400B4200D0D3
:10106000012070471168F5E7116AF3E718B5002011
:101070004FF4A06400903120FFF7E3FF0099491C72
:101080000091A14201D00028F5D03120FFF7D9FF0F
:10109000002800D0012018BD774A116821F0F8011E
:1010A00041EAC00010607047764908607047724B93
:1010B0005A68084322F47C12104358607047714903
:1010C000086670476C4A516821F003010143516082
:1010D00070476948406800F00C007047664A5168E4
:1010E00021F0F001014351607047634A516821F4D7
:1010F000E0610143516070475F4A516821F46051DB
:1011000041EAC000506070475B4A0029517A01D023
:10111000014300E08143517270475A49C1F8D80039
:101120007047554A516821F440410143516070476E
:101130005149002281F8202081F82020012802D086
:10114000042802D1052081F8200070474E4908602C
:10115000704749490A6A02430A6270474A4944395A
:101160000860704730B5444A5168484B11F00C0193
:1011700003D0042901D0082901D0036012E051688E
:10118000536801F470114FF0020413F4803F04EB34
:10119000914102D053689B0301D53D4B00E03B4B8E
:1011A0005943016051680F2303EA1111394B5C5C0C
:1011B0000168E14041605468072505EA14241C5D7C
:1011C00021FA04F48460546805EAD4241B5DD940F4
:1011D000C1605268032303EA92322E4B1B1F9A5CB4
:1011E000B1FBF2F1016130BD234A0029516901D000
:1011F000014300E08143516170471F4A0029916912
:1012000001D0014300E08143916170471A4A0029EF
:10121000D16901D0014300E08143D1617047164A92
:101220000029D16801D0014300E08143D1607047BB
:10123000114A0029116901D0014300E08143116185
:10124000704711494039086070470E49C8647047BB
:101250000949C87170470848416A41F0807141628C
:101260007047054A0146002092680A4200D00120DA
:101270007047014988727047001002400000FFF873
:10128000FFFFF6FE000042428004424200127A0054
:1012900000093D00180000206648002101604160FF
:1012A0008160C16041628162C162634A8263C163DD
:1012B000704730B55F4B5A6847F6FF618A43017D3E
:1012C0008468C568214344682C432143046800694D
:1012D000214301431143596030BD00210175016074
:1012E00041608160C160016170475449C1F8A0004C
:1012F000704750490A6822F003020A600A680243F4
:101300000A6070474B48006800F003007047494A84
:101310000029D16B01D0014300E08143D1637047C4
:1013200047490860704710B5424902688A60CA6838
:10133000D0E901342343D0E9034004436FF30A02A8
:1013400023431343CB6010BD0021016041608160E5
:10135000C1600161704737480069C0B270473549C4
:1013600008B5143108440090006808BD10B5314933
:1013700002684A6242688A62CA6AD0E90234234338
:10138000D0E90440044322F0F70223431343CB6225
:1013900010BD4FF0FF310160002141608160C160EC
:1013A0000161416170472348006B70472148D0F8C4
:1013B000800070471F49C1F8800070471D48806C4D
:1013C00070471F491431086070471D491831086083
:1013D00070471B491C31086070471949203108606B
:1013E00070471649C1F8AC0170471449C1F8B00103
:1013F0007047012181431148C0F8B41170470F496B
:10140000C1F8B80170470B4A01460020526B0A42EE
:1014100000D001207047074988637047054A01469C
:101420000020526B0A4200D00120704701498863B6
:101430007047000000800140FF07C00000003042FC
:101440008C053042994910B588420AD18414012193
:101450002046FFF7E4FE2046BDE810400021FFF7DC
:10146000DEBE9349884202D10121041404E091496F
:1014700088420AD10121C4132046FFF7D9FE204635
:10148000BDE810400021FFF7D3BE10BD30B5028883
:101490004C8802F441530A88CD8822438C882C431F
:1014A00022430C8922434C8922438C892243CC89D4
:1014B00022431A430280828B22F400628283098ACB
:1014C000018230BDF0B505460C4602200021AA8BF2
:1014D00085B001264FF240031A40AA832884AF8BBF
:1014E000A268022A21D0A08800B102266846FFF730
:1014F00039FEE1880098B1F5007F2CD07101B0FB76
:10150000F1F000EB8000A1684000B0FBF1F0401D5D
:1015100080B20A21B0FBF1F000F00101401A4FF651
:10152000FF72C0F34F0002EA0121821EFE2A01D39E
:1015300002200021E288084302432A84208861882F
:10154000A2890843A18811430843384340F400604E
:10155000A88305B0F0BD000AD3E7002101804180D7
:101560008180C180018141818181C1810721018206
:1015700070470021018041808180C1800222826009
:10158000818170470029018802D041F0400101E0CB
:1015900021F04001018070470029818B02D041F485
:1015A000806101E021F48061818370470909012392
:1015B0008B40002A828899B201D00A4300E08A4316
:1015C00082807047002A828801D00A4300E08A4363
:1015D000828070478181704780897047A1F57E4283
:1015E0000188FF3A02D041F4807101E021F480715A
:1015F000018070470029818802D041F0040101E098
:1016000021F0040181807047028822F40062028088
:1016100002880A4302807047018841F480510180AA
:1016200070470029018802D041F4005101E021F403
:10163000005101807047012901D0008B7047808ADA
:101640007047008A7047B1F5804F018803D021F4BC
:1016500080410180704741F48041FAE70246002052
:1016600012890A4200D001207047C94301817047A6
:1016700030B501F00F030125024605FA03F40020FE
:10168000A3B2090905FA01F49188A4B21289214094
:101690001A4202D0002900D0012030BD01F00F0213
:1016A00001219140C9430181704700000030014091
:1016B00000380040003C0040C44910B588420AD1BF
:1016C00001218C032046FFF7AAFD2046BDE810400B
:1016D0000021FFF7A4BDBE49884202D101214C047C
:1016E00010E0BC49884202D101218C040AE0BA49C9
:1016F000884202D10121CC0404E0B84988420AD1D1
:1017000001210C052046FFF793FD2046BDE810405F
:101710000021FFF78DBD10BD30B50446008A85B0AD
:101720000D464CF6FF710840E98801432182A089EB
:101730004EF6F3110840A9882A8911436A890243A9
:101740001143A181A08A4FF6FF410840A9890143B6
:10175000A1826846FFF706FD9C48844201D10398A8
:1017600000E00298A189090400EBC00101EB001020
:10177000296801D5490000E08900B0FBF1F064223E
:10178000B0FBF2F109010B096FF018056B4300EB98
:101790008300A3891D044FF0320306D503EBC0007C
:1017A000B0FBF2F000F0070005E003EB0010B0FB27
:1017B000F2F000F00F000843208105B030BD4FF477
:1017C0001651016000218180C18001810C2242817B
:1017D0008181704710B5028A4FF2FF031A400B88CF
:1017E0004C8823438C88C9880C43234313430382CA
:1017F00010BD0021018041808180C1807047002997
:10180000818902D041F4005101E021F4005181812D
:10181000704710B5C1F3421301F01F040121A1402C
:10182000012B07D0022B07D01430002A026805D004
:101830000A4304E00C30F8E71030F6E78A43026010
:1018400010BD002A828A01D00A4300E08A438282C6
:101850007047028A22F00F020282028A0A43028241
:101860007047828922F40062828182890A438281E0
:1018700070470029818902D041F0020101E021F086
:10188000020181817047028A22F020020282028ACC
:101890000A43028270470029018A02D041F4804144
:1018A00001E021F4804101827047C1F30801818089
:1018B00070478088C0F308007047818941F00101BA
:1018C00081817047028BD2B20283028B42EA0121EE
:1018D00001837047028B02F47F420283028B0A432A
:1018E000028370470029818A02D041F0200101E083
:1018F00021F02001818270470029818A02D041F0C5
:10190000100101E021F01001818270470029818AD5
:1019100002D041F0080101E021F008018182704706
:101920000029818902D041F4004101E0C1F30E0198
:10193000818170470029818A02D041F4006101E071
:1019400021F4006181827047828A22F0040282823F
:10195000828A0A43828270470029818A02D041F03C
:10196000020101E021F0020181827047024600205D
:1019700012880A4200D001207047C9430180704795
:1019800070B501F01F0501260024C1F3421306FAC9
:1019900005F2012B0FD0022B0FD0838A4FEA1121C1
:1019A0000088134206FA01F600EA060001D000B1F1
:1019B0000124204670BD8389F0E7038AEEE70A0A16
:1019C00001219140C9430180704700000038014067
:1019D0000044004000480040004C004000500040DF
:1019E0004FF47A76FA4C0025304605F0E6FE616A3F
:1019F000491C61623C2903D1206A401CC4E90805E6
:101A0000206A3C28F0D1E069401CC4E90705EBE7F7
:101A1000F04FF14E4CF6406138684843000C26F810
:101A20001400641C642C21D100252C4636F81400C7
:101A3000A0F25E6000FB0055284606F083FF07F029
:101A400049FF06F08CFF641C642CEFDBE04C206344
:101A500006F073FFE14906F032FF002360631A4687
:101A600004F13401A06A05F01AF90024012005F000
:101A7000A4FECFE7DA4DDB4FD54C6E14012128468A
:101A800000F0B7FB012808D1D7A007F08BFAE06877
:101A900005F089FFD8A007F085FA3146384600F0F6
:101AA000A8FB012808D1D9A007F07CFAE06805F06E
:101AB000E0FFDAA007F076FA322005F07EFEDDE7DF
:101AC000DC4FDFF86CA3C24C20264FF0834B4FF065
:101AD00001083D1F4FF00209A16B514515DA3E6028
:101AE000C5F80080C5F8009002F051FEC088C0EB38
:101AF000001080B202F05EFE02F049FEC088CEA166
:101B0000C0EB001080B202F016FCA06B584515DB4C
:101B10003E60C5F80080C5F8009002F038FEC0882D
:101B2000C0EB001080B202F045FE02F030FEC0882B
:101B3000C8A1C0EB001080B202F0FDFB4FF4FA70B8
:101B400005F03BFE2E60C7F80080C5F8009002F05B
:101B50001EFEC088C0EB001080B202F02BFE02F027
:101B600016FEC088C2A1C0EB001080B202F0E3FBF9
:101B7000B2E708B500F001F90122C3A1C34803F0A0
:101B800004FD4FF0FF37924CC14E3D0C4FF4FA78F4
:101B90008F4900233A463831A06A05F004FAA06B59
:101BA00006F0F6FE02460B46BAA007F0FBF904F178
:101BB0001C01BAA00EC907F0F5F9A06B06F0E8FE0B
:101BC000024685480B46B8A1643807F0FBF9A06BC4
:101BD00006F0DEFE024680480B46B8A1323807F018
:101BE000F1F9606A0090D4E90723B7A1BC4807F077
:101BF000E9F902F0CCFDC088C0EBC00080B202F071
:101C0000D9FD02F0C4FDC0887349C0EBC00080B2AA
:101C1000643902F090FB02F0BAFDC08800EBC0000E
:101C200080B202F0C7FD02F0B2FDC088ADA100EBAA
:101C3000C00080B202F07FFB02F0A9FDC08800EB7B
:101C4000800005EA400002F0B5FD02F0A0FDC0886A
:101C5000A34900EB800005EA400002F06CFB122271
:101C6000A6A18B4803F0B6FC20708948F16803F008
:101C700025FF574B58492C3332223239844803F020
:101C8000F7FD534B14222C339549814803F0F0FDA6
:101C90007F4803F005FF404605F08FFD78E77CB5EF
:101CA00006F040FD00220421012004F06BFF484CA7
:101CB0004FF4007504F10801A0620320CDE9000192
:101CC00000232A468FA1924805F0B1FB04F10C01D4
:101CD0000220CDE9000100232A468EA1904805F09C
:101CE000A6FB04F110010520CDE9000100232A46DE
:101CF0008CA18F4805F09BFB04F114010720CDE96E
:101D0000000100232A468BA18D4805F090FB04F1C9
:101D100018010620CDE9000100232A4689A18C483C
:101D200005F085FB606805F0ADFBBDE87C4006F082
:101D300013BD1CB54FF44070FEF70EFB02F07AF8AD
:101D400000F050F900F07EF900F03AFA01F0EAFBF9
:101D500001F002FC1E490120091DCDE900014202EB
:101D600000237CA17F4805F062FB012802D04FF0E0
:101D7000FF301CBD05F005FFFEE710B5062002F0A0
:101D800008F8794802F000FD4FF6FF740021204664
:101D900002F000FD75480021038875480288084656
:101DA00002F076F802F0F3FCC08872A100EB40006C
:101DB00080B202F0C0FA02F0EAFCC08873A100EB26
:101DC000400004EA4000BDE8104002F0B4BA000050
:101DD0002800002078000020D02100200000C84208
:101DE0000008014000100140B9D2C6F04C4544C87B
:101DF000CECEF1A3A10A0000B9D2C6F04C4544C82A
:101E0000CECEF1B3C9B9A6A3A10A0000BBD6B8B41F
:101E10004C4544C8CECEF1A3A10A0000BBD6B8B44D
:101E20004C4544C8CECEF1B3C9B9A6A3A10A00005F
:101E300000006041140C01402020202020B5E7D193
:101E4000B9B9FDB5CDA3ACC7EBBCB0CAB1B4A6C09F
:101E5000EDA3A1002020202020B5E7D1B9B9FDB81D
:101E6000DFA3ACC7EBBCB0CAB1B4A6C0EDA3A10060
:101E70002020202020202020202020B5E7D1B9D606
:101E8000B5D5FDB3A3000000303A00003C1100209E
:101E900018010020252E32662020200025646825A8
:101EA000646D2564730D0A0020202020202020204E
:101EB00020202020252E3266205600000D0A252ED7
:101EC00032662020202000002020202020202020FA
:101ED0002020202025646825646D2564730000009F
:101EE000F02400202020202020202020202020203E
:101EF000BFAABBFACAB1B3A400000000303A6B2EEF
:101F000074787400546573745F5461736B000000DF
:101F1000731B0008416C61726D5F5461736B00004C
:101F2000C11A00084B45595F5461736B00000000F3
:101F3000751A00084144435F5461736B0000000050
:101F4000111A000854696D655F5461736B000000DD
:101F5000E11900084170705461736B4372656174DC
:101F6000650000009F1C00088000002098000020F1
:101F70009600002020202020202020202020BAFEB3
:101F8000B1B1CAA6B7B6B4F3D1A700002020202073
:101F900020202020202020B5E7D1B9D3D0D0A7D64B
:101FA000B50000007047FEE7FEE7FEE7FEE770477A
:101FB00010B505F045FF012803D0BDE8104006F03C
:101FC000DCBB10BD10B55020EFF3118480F31188F5
:101FD000BFF34F8FBFF36F8F01F0CBF984F31188FC
:101FE00010BD000038B501210820FFF706F92020B8
:101FF000ADF8000010208DF803000320104C8DF880
:10200000020069462046FEF710FF0121ADF80010DE
:1020100069462046FEF709FF0221ADF80010694627
:102020002046FEF702FF20212046FEF768FF01212F
:102030002046FEF764FF02212046FEF760FF38BD10
:10204000000C014030B587B001210420FFF7D5F81E
:1020500001218803FFF7D1F84FF40070ADF81000AC
:1020600018208DF813000320534C8DF8120004A99A
:102070002046FEF7DAFE2115ADF8101004218DF888
:10208000131004A92046FEF7D0FE00244FF4E130DF
:102090000090ADF808400C20484DADF80440ADF874
:1020A0000A00ADF80640ADF80C4069462846FFF737
:1020B00033FB4FF44070FEF74FF925218DF81410D3
:1020C00006208DF815008DF8164001208DF81700B8
:1020D00005A8FEF746F901212846FFF790FB07B057
:1020E00030BD10B50446FFF7E0FB80212046FFF726
:1020F0003DFC0028F9D010BD2DE9F04115460E46F3
:102100000746002405E0315D3846FFF7EAFF641C0E
:10211000E4B2AC42F7D340213846FFF727FC002851
:10212000F9D0BDE8F08170B50D4606460024304672
:10213000295DFFF7D6FF641C285D0028F7D14021F8
:102140003046FFF713FC0028F9D070BD70B5044687
:10215000080ACDB201462046FFF7A7FB80212046A2
:10216000FFF704FC0028F9D029462046FFF79DFB25
:1021700080212046FFF7FAFB0028F9D070BD70B52A
:102180000E4D0446C1B22846FFF78FFB802128463A
:10219000FFF7ECFB0028F9D0204670BD10B5074CC6
:1021A00020212046FFF7E2FB0028F9D02046BDE8B9
:1021B0001040FFF77EBB00000008014000380140DE
:1021C00038B501211420FFF718F80120ADF8000000
:1021D00004248DF8034069460E48FEF726FEE0020F
:1021E000ADF800008DF8034069460B48FEF71DFE70
:1021F00038BD70B50C460546FEF76DFE012801D0CE
:10220000002070BD21462846FEF765FE0128F9D062
:10221000012070BD000801400010014038B50020C9
:10222000FFF763F80020FFF764F8FFF735F80021A7
:102230004FF48060FEF7D8FF4FF4F850ADF800007F
:1022400004248DF803406946FE48FEF7EEFDADF824
:1022500000406946FC48FEF7E8FD38BD70B504460D
:102260008CB00E46F948FEF724FBF94D00212846B4
:10227000FEF7F9FAF748CDE900040020B108CDE9EE
:1022800002018021CDE90401890006918900CDE990
:1022900007108900CDE9091069462846FEF7B9FA0A
:1022A00001212846FEF7DFFA0CB070BD70B5044678
:1022B0008CB00D46E548FEF7FCFAE54E00213046AD
:1022C000FEF7D1FAE348CDE9000410200290A808F7
:1022D000039000208021CDE9040189000691890046
:1022E000CDE907108900CDE9091069463046FEF7AF
:1022F00090FA01213046FEF7B6FAD5E72DE9FC5FEA
:102300000024D54F00944FF4806801944025C7F80D
:102310001080C7E902540E464FF0080B1021C7E9A0
:1023200000B1A1463846FEF7FEFF102001F049F843
:10233000002851D1C948AA464D460089000438609A
:102340003720C7E9010AC7E903983846FEF7EBFFD3
:10235000372001F036F800283ED1411E07F1140065
:10236000C0E9001B302181600221C0E90315012171
:102370004161FEF7FBFF3320C7F808A0C7E9005012
:10238000C7E903583846FEF7CEFF332001F019F8AD
:10239000050021D1DFF8BC824FF4001A6F46A8F186
:1023A000800840F22A69D8F8340010EA090F0BD1EE
:1023B0005046FFF728F80028F5D0FEF7F7FF47F85A
:1023C0002400641C012CEED90820FFF71CF828B16A
:1023D0000820FFF720F80420BDE8FC9F0220FFF74B
:1023E00012F820B10220FFF716F80220F4E72020AF
:1023F000FFF709F820B12020FFF70DF80620EBE7E2
:102400004FF400742046FEF7FEFF20B12046FFF790
:1024100002F80720E0E740F2FF50FEF7FCFF0098CB
:1024200000BA7060019800BA30602846D4E72DE900
:10243000FC4700248146009420460194FEF78FFF5C
:10244000800102D50E20BDE8FC87844D69462889AD
:1024500080B2FFF753FF0028F5D137207E4E019957
:102460004FF0060A4FF040084FF48067B9F1010FB2
:102470001ED0C90334D52989C6F808800904C6E9E5
:102480000010C6E903473046FEF74DFF372000F045
:1024900098FF0028D7D1C6F80880C6E9004AC6E9E7
:1024A00003476D48FEF73FFF062000F08AFFCAE7AA
:1024B000490315D52989C6F808800904C6E9001022
:1024C000C6E903476448FEF72EFF372000F079FF86
:1024D0000028B8D10220C6F80880C6E9000ADEE765
:1024E0002520B0E72DE9F04101465C480024406812
:1024F000032815D018B1012801D0022828D1B1F540
:10250000805F0DD0544D4FF4006800260127183D20
:1025100041450ED10120FFF78AFF040003D017E0E8
:102520002720BDE8F0812F752E606E60C5E9026836
:1025300009E00020FFF77BFF040009D12F752E6012
:102540006E60AE60EE6044482E611838FEF7B1FE52
:102550002046E6E7404910B5086007204860402063
:1025600088600020C8604FF4806008610846FEF76C
:10257000DAFEBDE81040072000F023BF2DE9F0434C
:102580003649DFF8D4904F6880F856700989A9F170
:10259000A009A0F85410D9F800100A0E940904708C
:1025A000C2F38304447002F0030282700A0CC2700A
:1025B0000A0A02714171D9F80430190E0901C1806B
:1025C000C288C3F3074142EA1112C28001F00F0131
:1025D0000172C3F30721CA094272C1F380128272E9
:1025E000C1F34012C272C1F3001202730025457399
:1025F0004A464FF001089268140EC2F30746C2F330
:10260000072C27B1012F02D0022F48D05DE08907A7
:10261000090D0161D9B2036943EA810101610169D0
:1026200041EA94110161C4F3C201017504F007018C
:10263000417571098175C6F38201C175B107490FF2
:1026400001760DE0001001400014014000F0001080
:102650004404024080800140A8250020640000203E
:10266000037E614643EAD11303760469067EB61CF5
:1026700008FA06F3DF17641CA4FB036C05FB03C315
:1026800004FB0734077A08FA07F3A6FB037C03650B
:1026900004FB03C306FB0533C0E9127315E099067A
:1026A000890A0161016941EA04210161016931433B
:1026B0000161036961465B1CEC0444EA5334DB04AA
:1026C000C0E912344FF400730365C1F380134376FD
:1026D0008906490E00F81A1FD1B2027842EAD112D7
:1026E00000F8012B01F07F0100F8011BD9F80C2044
:1026F000110ECB0900F8013BC1F3411300F8013B77
:10270000C1F3820300F8013B8907090F01700378C8
:10271000C2F3074143EA911300F8013BC1F34013B0
:102720000370457001F001018170C2F30721CB09EC
:10273000C370C1F380130371C1F340134371C1F33C
:1027400000138371C1F38103C37101F003010172AE
:10275000C2F34601417280F80A80FE4A11680B0EEE
:1027600003730B0C1B02C381C489C1F307231C43F1
:10277000C48109060161516804690B0E44EA0343F0
:1027800003610469C1F3074344EA03230361046955
:10279000C1F307231C430461017591680B0E437557
:1027A0000B0C1B0683618469C1F3072344EA0343CE
:1027B00083618369C9B243EA01218161D168836978
:1027C00043EA11638361037FC1F3074243EA1213B3
:1027D00003771207120DC283C38BC1F30722134381
:1027E000C383C1F3460180F8201080F82180284679
:1027F000BDE8F08310B5D84A0024516B11F0450FA5
:10280000FBD0480702D50324042003E0C80705D005
:1028100001242046FEF7FFFD204610BD40F2FF5088
:10282000F8E72DE9F84F01200024ADF80000FEF78D
:1028300069FDA8B3DFF82493D9F8040004286AD00E
:10284000C44D4FF0C00A903500260220C5F808A0FC
:10285000C5E900604FF48068C5E903682846FEF7C3
:1028600062FDFFF7C7FF04001CD1FEF778FDB94FEA
:1028700038600420FEF773FD78600820FEF76FFDD6
:10288000B8600C20FEF76BFDF860D9F804004F46E5
:1028900050B1012808D0062806D0022804D014E040
:1028A000FFE72520BDE8F88F0320E5E8026040201F
:1028B00085E84101A748083D9030FEF734FD6946A0
:1028C000032000F08AFD0400ECD17868042822D0AF
:1028D000BDF80000B860000428600920C5E9010ABD
:1028E000C5E903689B489030FEF71DFDFFF782FFA6
:1028F0000400D7D1FEF733FD964D103D286004202B
:10290000FEF72DFD68600820FEF729FDA8600C2069
:10291000FEF725FDE8602046C4E72DE9F84F0027C3
:102920008C48B2217830BB460175076047608760EC
:10293000C7603D463E46B8465C460761FEF7B9FCB7
:102940000320FEF7D6FC0120FEF7CFFCDFF804A23F
:102950004FF480610AF1900A5046CAF80040CAF864
:102960000440CAF80840CAE90341FEF7DCFCB94656
:102970004FF4803401E0641E27D08020FEF743FD31
:102980000028F8D00CB340F2FF50FEF744FD484653
:1029900000287CD14FF4D570CAF800000820CAF88E
:1029A0000400D9460AF1080140204FF4806B81E809
:1029B000010A684854469030FEF7B5FC664B002289
:1029C0004FF48030596B9A4604E00320E0E7DAF8D0
:1029D0003410401E11F0450F06D008B1480706D547
:1029E00003220420009207E00028F0D1F8E748060F
:1029F00005D5002240200092FEF70DFD009A12B38B
:102A00003721C4E900914021C4F810B0C4E902198B
:102A100050489030FEF787FC372000F0D2FC4D483C
:102A2000002290303721C0E900214FF04009C0F862
:102A300010B0C0E90292FEF776FC372000F0C1FC2E
:102A400004003DD04DE0454801214FF080484160F1
:102A5000E5E7404C002690343720C4F80890C4E9DC
:102A60000060C4E9036B5F462046FEF75CFC37203C
:102A700000F0A7FC00280AD1394948EA010020608B
:102A80002920C4E90109C4E90367204600E021E0E8
:102A9000FEF749FC00245146486B10F0450FFBD06F
:102AA000400702D50324042001E040F2FF50FEF766
:102AB000B2FCB4B90020FEF752FCC60F07466D1CED
:102AC0001EB94FF6FF708542C3D34FF6FF708542A3
:102AD00001D31B20E6E617F0804F02D01F480221E9
:102AE00041602046DEE638B54FF44070FDF734FC17
:102AF00031208DF8000006208DF8010000248DF8AB
:102B0000024001258DF803506846FDF72AFC01219B
:102B10003020FEF772FB4FF4F850ADF800000320B0
:102B20008DF8020018208DF8030069460D48FEF765
:102B30007CF90420ADF8000069460B48FEF775F9F2
:102B400001218802FEF750FB01210220FEF74CFB19
:102B50000CE00000182500200080014064000020E7
:102B6000000010800010014000140140FEF794FBAB
:102B7000FFF7D3FE00281FD1FFF753FE00281BD11B
:102B8000FE480575046044608460C4600461FEF71B
:102B900090FBFA485838FFF7F1FC00280CD1F748B1
:102BA0005838B0F854000004FFF7D4FC002803D1D3
:102BB000E802BDE8384095E438BD70B50546F048F8
:102BC000F04C00890004A06040F24D40E0600D2010
:102BD00000F0F7FB002801D16169296070BD08B5DC
:102BE000002000906846FFF7E8FF08B1FF2008BD0D
:102BF0000098C0F3432008BD10B5FFF7F0FF04288C
:102C000003D0FF2803D0012010BD002010BD0220FA
:102C100010BD10B500242046FEF76BFB204610BD0A
:102C20002DE9F04705460020FEF799FB800102D50B
:102C30000E20BDE8F087D14E402718361020C6E997
:102C400000704FF480680024C6F81080C6E9027452
:102C50003046FEF768FB102000F0B3FB0028E8D1F7
:102C6000C7480089000430603720C6E90107C6E97B
:102C700003483046FEF757FB372000F0A2FB002840
:102C8000D7D1411E06F11400C0E900176021816010
:102C90000221C0E9031401214161FEF767FB0D2009
:102CA000C6E90040C6F81080C6E902743046FEF757
:102CB0003AFB0D2000F085FB0600BAD1B14F4FF46E
:102CC000004940F22A68786B10EA080F0ED1484696
:102CD000FEF799FB0028F6D00024FEF767FB45F8C5
:102CE0002400641C082CF8D32035ECE70820FEF7FC
:102CF0008AFB20B10820FEF78EFB042099E7022012
:102D0000FEF781FB20B10220FEF785FB022090E751
:102D10002020FEF778FB20B12020FEF77CFB062068
:102D200087E74FF400742046FEF76DFB40B1204664
:102D3000FEF771FB07207CE7FEF738FB01C501E0D9
:102D40004FF400142046FEF75EFB0028F4D140F259
:102D5000FF50FEF760FB30466BE710B5044687482E
:102D60006838FFF75DFF010036D184486838027883
:102D7000920922700278C2F34012627082781202C5
:102D80006280C278638813436380027912066260AE
:102D90004279636843EA024262608279636843EA87
:102DA00002226260C279636813436360027A22720E
:102DB000427A6272827A1209A272C27A1202A281E5
:102DC000027BA3891343A381427B9208A273407BB9
:102DD00000F00300E073084610BD2DE9F04782467D
:102DE00067480027089D144607700761C76065495A
:102DF000CF624068022803D10502540A44EAC35452
:102E00005E4E4FF0400918361020C6F80890C6E90B
:102E100000504FF48068C6E903783046FEF783FA25
:102E2000102000F0CEFA002828D1411E06F114002F
:102E3000C0E90015902181600221C0E9031701213A
:102E40004161FEF793FA1120C6F80890C6E90040E8
:102E5000C6E903783046FEF766FA112000F0B1FAB1
:102E600004000BD101210802FEF751FA0120FEF700
:102E700057FA29465046FFF7F1F92046D9E62DE9E1
:102E8000FF5F3F48DDE90E580027144607700761D1
:102E90004FF0010AC0F80CA03A49CF6240680228FE
:102EA00003D10502540A44EAC354344E4FF4806BF4
:102EB00018361020C6F810B0C6E900504FF040098F
:102EC000C6E902973046FEF72EFA102000F079FA94
:102ED00000282AD1411E06F1140008FB05F8E0E89D
:102EE0000218902102C0022180E8820406F1140039
:102EF000FEF73CFA1220C6F810B0C6E90040C6E959
:102F000002973046FEF70FFA122000F05AFA04003A
:102F10000BD101210802FEF7FAF90120FEF700FAB1
:102F200041460098FFF79AF9204604B0BDE8F09FAB
:102F300070B50025124C00F041FA20B9206910B993
:102F400020780028F7D0207808B1207870BD284676
:102F500070BD2DE9F047824609480026089D1746B6
:102F600006700661C6600749CE624068022803D138
:102F70000502570A47EAC357004C05E09025002098
:102F8000640000200080014018344FF48069102054
:102F9000C4F81090C4E900504FF04008C4E902861C
:102FA0002046FEF7C0F9102000F00BFA002828D1C7
:102FB0001820C4F81090C4E90070C4E902862046C5
:102FC000FEF7B1F9182000F0FCF9002819D104F13E
:102FD0001402401EC2E900059020C2E90206012049
:102FE000C2E904601046FEF7C1F901210802FEF7AC
:102FF0008EF929465046FFF759F90120FEF790F95E
:10300000304616E62DE9FF5F82B0DFF8FCB3DDE95C
:1030100010450026009617468BF80060CBF810602C
:103020000121CBF80C10F949CE62DBF8040002282C
:1030300003D10402570A47EAC357DFF8D4831021AB
:1030400040464FF0400AC0E90041C8E902A64FF4EB
:103050008069C8F81090FEF766F9102000F0B1F909
:1030600000284CD1BBF808000104C8F80010372133
:10307000C8F80C60C8E9011A4046C8F81090FEF77D
:1030800052F9372000F09DF9002838D14046172129
:10309000C0E90051C8E902A6C8F81090FEF743F94C
:1030A000172000F08EF9002829D140461921C0E9E7
:1030B0000071C8E902A6C8F81090FEF734F919208B
:1030C00000F07FF900281AD108F11402401E654370
:1030D000C2E900059020C2E902060120C2E90460AD
:1030E0001046FEF743F901210802FEF710F901200E
:1030F000FEF716F929460298FFF7D8F8304606B0D1
:1031000014E770B50025C04C00F058F920B92069CB
:1031100010B920780028F7D0207808B1207870BD49
:1031200040F2FF50FEF777F9284670BDB748406B74
:1031300010F4405000D001207047B4480021816055
:1031400040F24C41C1600C2000F03BB97CB5044614
:103150000025AD480095019500890204AC48026045
:103160000D2242604022C0E9022511010161FEF7F3
:10317000DAF8A649486B019002E04A6B01921046CA
:1031800010F0450FF9D00198400702D50324042020
:1031900004E00198C00705D001242046FEF73BF962
:1031A00020467CBDFEF7D7F801900D2838D140F2BB
:1031B000FF50FEF730F90020FEF7D1F80090C0F381
:1031C000432020709349009808425DD00098002861
:1031D00001DA1C207CBD400001D509207CBD00988F
:1031E000800001D50A207CBD0098C00001D50B20CD
:1031F0007CBD0098000101D50C207CBD00984001E9
:1032000001D50D207CBD0098C00101D50E207CBDEC
:103210000098000201D50F207CBD0098400201D526
:1032200010207CBD0098800201D511207CBD009843
:10323000C00201D512207CBD0098000301D51320E7
:103240007CBD0098400301D514207CBD009880030C
:1032500001D515207CBD0098C00301D516207CBD8A
:103260000098000401D517207CBD0098400401D5CA
:1032700018207CBD0098800401D519207CBD0098E1
:10328000000701D51A207CBD28467CBD2DE9FC47EE
:1032900006465F480024A03800948DF8044040683A
:1032A0000D46000D2746800602D42520BDE8FC8788
:1032B000564840685849C0B2801CB1FBF0F00090FD
:1032C0000020FEF74CF8800101D50E20EEE74E48B5
:1032D000DFF83C814FF0400A40684FF480690228D3
:1032E00005D030B1012804D0022802D020E0760AAF
:1032F0006D0A2020E8E80260564688E8C00244488B
:10330000A8F10808FEF70FF8202000F05AF800286E
:10331000CCD148F8045B212088E8C1023C48A8F1E0
:103320000408FEF700F8212000F04BF80028BDD17A
:1033300040462621C0E90071C8E902A73448C8F810
:103340001090FDF7F0FF262000F03BF80028ADD1EB
:1033500000E0641C00988442FBD301A8FFF7F6FE4E
:103360000028A3D19DF804100729F6D00629F4D02F
:103370009CE770B5244CE1680020012907D123495E
:10338000886040F24C40C8600C2000F01AF82070B1
:103390004FF480752846FEF749F800212846FDF7CE
:1033A000B6FF01202061207870BD002102E04008B6
:1033B000491CC9B20128FAD1084670471748FDF7E1
:1033C0006ABA1248416B11F0450FFBD040F2FF5131
:1033D0008163406900F00800704770B50C460B49E6
:1033E00006460025486B10F0450FFBD0410702D57B
:1033F0000324042003E0C00712D001242046FEF776
:103400000AF8204670BD00006400002000800140E2
:10341000A825002008E0FFFDC0D401000020001016
:10342000FDF799FFB04212D140F2FF50FDF7F3FFD4
:103430000020FDF794FF10F4604F03D0810404D501
:103440001320DFE7000C208007E0410401D51020A5
:10345000D8E7000401D50F20D4E72846D2E70000C2
:1034600070B5012190B00846FDF7BEFE012148026B
:10347000FDF7C3FE344E3046FDF75EF93348009049
:10348000334801A90024012581E831002802049471
:10349000CDE9054080000790202008900002CDE98A
:1034A000090469463046FDF7B4F901213046FDF7BD
:1034B000DAF98DF830400B948DF831504FF46020DC
:1034C000CDE90D04214C8DF83C504C3C0BA9204615
:1034D000FCF7B6FF4FF44040FDF723FE072301221F
:1034E0000B212046FDF72CF801212046FCF7DAFFDE
:1034F00001212046FCF7CCFF2046FCF7E6FF2046E2
:10350000FCF7E8FF0028FAD12046FCF7EAFF204646
:10351000FCF7ECFF0028FAD101212046FCF7EDFF73
:1035200010B070BD08B501211020FDF766FE022025
:10353000ADF8000000208DF8030069460548FDF74E
:1035400074FCBDE808408BE7080002404C240140B1
:10355000780000200010014038B501210420FDF75B
:103560004CFE4FF48074ADF8004010208DF803003D
:103570000320064D8DF8020069462846FDF755FCEC
:1035800021462846FDF7BDFC38BD0000000801407B
:1035900070B5012186B00803FDF72FFE0121D4206C
:1035A000FDF72BFE0124ADF8144003208DF8160022
:1035B0001020FE4D8DF8170005A92846FDF735FCB3
:1035C0002020ADF814001820F94E8DF8170005A939
:1035D0003046FDF72AFC4021ADF8141005A930460D
:1035E000FDF723FC8020ADF8140005A93046FDF757
:1035F0001CFC01212846FDF782FC0020ADF80000EC
:103600004FF48271ADF80210ADF804000221ADF85C
:103610000610ADF808400902ADF80A100821ADF80F
:103620000C10ADF80E000720E24CADF81000694612
:103630002046FDF72BFF01212046FDF7A3FF06B032
:1036400070BD2DE9F041DC4C4FF4805507462560F4
:10365000D84E03E02068411E216010D3022130467D
:10366000FDF7FCFF0028F5D039463046FDF7B2FFE4
:10367000256009E02168481E206005D2012000F085
:10368000D5F9C0B2BDE8F08101213046FDF7E6FF73
:103690000028EFD03046FDF79FFFF2E710B5C34C8E
:1036A00001212046FDF72DFC0520FFF7CAFFFF2072
:1036B000FFF7C7FFC007FAD12046BDE8104001213F
:1036C000FDF71DBC10B5B94C01212046FDF719FCD2
:1036D0000620FFF7B6FF2046BDE810400121FDF7A8
:1036E0000EBC70B50446FFF7EDFFFFF7D7FFAF4DF7
:1036F00001212846FDF705FC2020FFF7A2FFC4F3B7
:103700000740FFF79EFFC4F30720FFF79AFFE0B2E0
:10371000FFF797FF01212846FDF7F1FBBDE8704058
:10372000BCE710B5FFF7CEFFA04C01212046FDF706
:10373000E8FBC720FFF785FF01212046FDF7DFFBEF
:10374000BDE81040AAE72DE9F04114460F460546B2
:10375000FFF7B8FF954E01213046FDF7D2FB02205E
:10376000FFF76FFFC7F30740FFF76BFFC7F30720B3
:10377000FFF767FFF8B2FFF764FFB015844208D97E
:1037800004468EA005F00EFC03E02878FFF759FFF1
:103790006D1C641EA4B2F8D201213046FDF7AFFBC8
:1037A000BDE8F0417AE72DE9F04706460D4611F0F5
:1037B000FF00C0F10001CFB24FEA122402F0FF096E
:1037C0004FF4807A13D0E8B24042C0B205EB000853
:1037D0000CB3D01B80B2040A00F0FF093A46294618
:1037E0003046FFF7B0FF3E44454657462CE06CB1EB
:1037F0005746641EE4B20CD33A4629463046FFF7DA
:10380000A2FF05F5807506F58076F2E72946304679
:103810000EE04A46FAE7B945F8D9A9EB0700C4B269
:103820003A4629463046FFF78EFF4146F0192246B8
:10383000BDE8F04787E73A4629463046FFF783FF61
:1038400005F5807506F58076641EE4B2F3D2B9F111
:10385000000001D00246D9E7BDE8F0872DE9F0412C
:10386000524E0F460446154601213046FDF749FBEE
:103870000320FFF7E6FEC7F30740FFF7E2FEC7F3BA
:103880000720FFF7DEFEF8B2FFF7DBFE04E0FF20C3
:10389000FFF7D7FE04F8010B6D1EADB2F7D230462C
:1038A000BDE8F0410121FDF72ABB2DE9F0413F4C75
:1038B00001212046FDF725FB9F20FFF7C2FEFF20D8
:1038C000FFF7BFFE0746FF20FFF7BBFE0646FF20BF
:1038D000FFF7B7FE054601212046FDF710FB38042F
:1038E00040EA06202843CDE670B5304C0121204641
:1038F000FDF707FBAB20FFF7A4FEFF20FFF7A1FEBB
:10390000FF20FFF79EFEFF20FFF79BFEFF20FFF743
:1039100098FE054601212046FDF7F1FA284670BDC4
:1039200010B5044601212148FDF7EBFA0320FFF70B
:1039300088FEC4F30740FFF784FEC4F30720FFF7B7
:1039400080FEE0B2BDE810407BE6FF2079E62DE97D
:10395000F041194C4FF4805507462560154E05E09F
:103960002068411E216001D2022010E00221304671
:10397000FDF774FE0028F3D039463046FDF72AFEE5
:10398000256008E02168481E206004D20320BDE8BD
:10399000F04100F04BB801213046FDF75FFE0028F2
:1039A000F0D03046BDE8F041FDF716BE00100140F2
:1039B00000080140003001407C0000203C3C2D46C6
:1039C0004C4153482D4552524F522D3E3E205350AC
:1039D000495F464C4153485F50616765577269744F
:1039E0006520746F6F206C61726765210A000000AA
:1039F00010B5124C01212046FDF783FAB920FFF7DC
:103A000020FE2046BDE810400121FDF778BA10B530
:103A10000A4C01212046FDF774FAAB20FFF711FE96
:103A20002046BDE810400121FDF769BA10B50146F6
:103A300003A005F0B7FA002010BD000000100140FF
:103A40003C3C2D464C4153482D4552524F522D3E41
:103A50003E2053504920B5C8B4FDB3ACCAB121656E
:103A600072726F72436F6465203D2025640A000006
:103A700070B5104E05460C46307818B9FFF788FD32
:103A800001203070220AA13AC2EB0211E0B201EB30
:103A9000421100EB41000102A1F52141C81701EBE1
:103AA00050700549202201EBE0012846FFF7D6FEC1
:103AB000002070BD90000020003018002DE9F84F64
:103AC00001216020FDF799FB03248DF802401825A1
:103AD0008DF803504FF48046ADF800606946FB480E
:103AE000FDF7A3F97700ADF800706946F748FDF7D8
:103AF0009CF90120ADF800006946F448FDF795F9FE
:103B00000220ADF800006946F048FDF78EF98020EC
:103B1000ADF800006946EE48FDF787F94FF480786C
:103B2000ADF800806946EA48FDF77FF94FF4007967
:103B3000ADF800906946E648FDF777F94FF4806AE2
:103B4000ADF800A06946E248FDF76FF9F010ADF856
:103B500000006946DE48FDF768F94FF4805BADF878
:103B600000B06946DA48FDF760F97010ADF8000062
:103B70006946D748FDF759F9ADF800606946D44861
:103B8000FDF753F9ADF800706946D148FDF74DF9DE
:103B9000ADF800806946CD48FDF747F9ADF80090D3
:103BA0006946CA48FDF741F9ADF800A06946C74823
:103BB000FDF73BF98DF802408DF803501025ADF864
:103BC00000506946C148FDF730F92020ADF80000EB
:103BD0006946BE48FDF729F98020ADF80000694626
:103BE000BA48FDF722F9E801ADF800006946B74888
:103BF000FDF71BF98DF803508DF802400220ADF857
:103C000000006946B248FDF710F98DF803508DF8B1
:103C10000240ADF800B06946AC48FDF706F9BDE8D2
:103C2000F88F10B54FF0C044CF202080A948002164
:103C300001808121018030210180ED2121806421DA
:103C40000180032101801221018081210180E8216E
:103C50002180852101801021018078210180CB21E4
:103C60002180392101802C21018000210180342113
:103C7000018002210180F721218020210180EA2199
:103C80002180002101800180B1212180002101805B
:103C90001B210180B62121800A210180A2210180FF
:103CA000C021218035210180C12121801121018085
:103CB000C5212180452101800180C7212180A221C9
:103CC0000180F22121800021018026212180012113
:103CD0000180E02121800F21018026210180242103
:103CE00001800B2101800E210180092101805421D6
:103CF0000180A8210180462101800C21018017212B
:103D00000180092101800F2101800721018000210C
:103D10000180E121218000210180192101801B21E6
:103D200001800421018010210180072101802A21C6
:103D30000180472101803921018003210180062172
:103D40000180018030210180382101800F21018014
:103D500036212180C82101802A2121800021018073
:103D600001800180EF2101802B2121800021018031
:103D70000180012101803F2101803A2121805521CC
:103D8000018011202080544800F01CFD2920208053
:103D900010BD10B507282BD8504AC4074FF0F001CA
:103DA00010704FF4A07324D05380918036210B07FC
:103DB0001980082141EA4011464801802A211980D2
:103DC0000021018001805188491EC1F3072404802D
:103DD000C9B201802B2119800021018001809188C6
:103DE000491EC1F307220280C9B201802C2018802D
:103DF00010BD51809380D9E770B5354C0221204623
:103E0000FDF77FF840F6FF25284600F0DBFC022195
:103E10002046FDF774F82846BDE8704000F0D2BC9B
:103E20002A4A00284FF48051104601D0FDF769B8A6
:103E3000FDF765B810B5FFF741FE00F0CBFC01209F
:103E4000FFF7EEFFFFF7D8FFFFF7EBFE2348007800
:103E5000BDE810409DE770B54FF0C0462A2434807D
:103E60001C4C050A2580C5B225801044401E020A5C
:103E70002280C0B220802B203080080A2080C8B267
:103E80002080C818401E010A2180C0B2208070BD69
:103E900070B51D461446FFF7DEFF104904FB05F020
:103EA0000989BDE8704000F0C5BC10B50B4C6288B4
:103EB00090420AD2A288914207D200F0B7FCE18872
:103EC000BDE81040012000F0B5BC10BD0014014059
:103ED0000018014000000260FCBF020094000020B6
:103EE00010B500F0A3FC4FF0C0412E200880FC4824
:103EF00001880288018800886FF30A02800A42EA7A
:103F0000401040EAD120E0E72DE9FE4F0026A2EB69
:103F1000000883465F1A701E35460191B8F1000F04
:103F200002DD4FF0010102E003D14FF000010091EA
:103F300002E0C8F100080090002F02DD4FF0010000
:103F400002E003D14FF00000824602E08246C7F152
:103F500000074046B84501DD044600E03C46601CD1
:103F60004FF00009029018E058460199FFF79DFFB5
:103F700046443D44A64205DD0099361B0BEB01008B
:103F80001FFA80FBA54204DD01982D1B504480B22E
:103F9000019009F101001FFA80F902998945E3DDDA
:103FA000BDE8FE8F2DE9F041074606981C461546F0
:103FB0000E4650B13846FFF74EFFCA4905FB04F0E4
:103FC000C988BDE8F04100F035BCBD186D1EAAB22D
:103FD0000B463846FFF798FF3444641EA3B2AAB2DA
:103FE000A1B23846FFF790FF3A46A3B231461046D9
:103FF000FFF78AFFA3B2AAB2A8B23146BDE8F041EA
:1040000082E72DE9FF4F80460024032083B00F464E
:1040100016B2A0EB42000FFA80F98FE00698E8B3E1
:10402000254642E008EB040007EB050A02901FFA60
:104030008AF180B2FFF739FFA8EB040001901FFA64
:104040008AF180B2FFF731FF381981B2A8EB050A77
:1040500000901FFA8AF0FFF728FFA7EB040B1FFA66
:104060008BF11FFA8AF0FFF720FF0198A7EB050AF2
:104070001FFA8AF180B2FFF718FF02981FFA8AF13F
:1040800080B2FFF712FF08EB050A1FFA8BF11FFA47
:104090008AF0FFF70AFF009881B200E008E01FFAFB
:1040A0008AF0FFF702FF6D1C2DB2B542BADD34E095
:1040B00008EB0400BD190190A9B280B2FFF7F5FE2C
:1040C000A8EB040AA9B21FFA8AF0FFF7EEFE38192E
:1040D00081B2A8EB06050090A8B2FFF7E6FEA7EBB9
:1040E000040B1FFA8BF1A8B2FFF7DFFEBD1BA9B2CC
:1040F0001FFA8AF0FFF7D9FE0198A9B280B2FFF744
:10410000D4FE08EB06051FFA8BF1A8B2FFF7CDFE2F
:10411000009881B2A8B2FFF7C8FE641C24B2B9F1BE
:10412000000F03DA09EB8400801D74E7A11B09EB83
:1041300081000A30761E0FFA80F936B2B4427FF75A
:104140006DAF07B0BDE8F08FF0B5664C203A97B27E
:10415000E668B288F388366802FB03F54FEAE57C2F
:1041600005EB5C75C5F3C70507FB0566FFF773FE36
:104170002C20C10608800021594F802210E0002029
:10418000735C22FA00FC13EA0C0F01D0E38800E014
:1041900023893B80401CC0B20828F1D3491CC9B216
:1041A000A942ECD3F0BDF0B50E46054600244D4FB4
:1041B00019E0F8687B8881882144994203D9C18835
:1041C000002429448DB2C088B9882844884201D986
:1041D0000024254629462046FFF7B6FFF868761CDE
:1041E0008088204484B23278002AE2D1F0BDF0B554
:1041F00016460D4604463B4F19E0F8687B888188D7
:104200002144994203D9C188002429448DB2C08831
:10421000B9882844884201D90024254629462046E9
:10422000FFF792FFF868761C8088204484B23278C9
:10423000002AE2D1F0BDF0B516460C460546294FDE
:1042400019E0F868BB88C1882144994203D9818864
:10425000002429448DB2808879882844884201D975
:1042600000252C4621462846FFF76EFFF868761C8D
:10427000C088204484B23278002AE2D1F0BDF0B583
:104280001446102389B01A46FFF7E5FD2C20C3061B
:10429000188021466846FFF7EBFB124C104D0021B9
:1042A0006F464FF6FF7C4FF4004607EB410217F8CC
:1042B000110053780CEA00200343002026FA00F294
:1042C0001A4201D0E28800E022892A80401CC0B254
:1042D0001028F3D3491CC9B21029E6D309B0F0BDA8
:1042E00000000260940000202DE9F04116460D46C2
:1042F0000446FE4F1AE0798804F11000884202D982
:1043000000241035ADB2B98805F11000884201D9FA
:10431000002425463088010201EB102082B2294694
:104320002046FFF7ACFF1034A4B2B61C307800284A
:10433000E1D1BDE8F0812DE9F0410E4605460024AB
:10434000EA4F37E07E2A1AD8F8687B8881882144B2
:10435000994203D9C188002429448DB2C088B98804
:104360002844884201D90024254629462046FFF7E3
:10437000EBFEF868761C8088204484B21AE07988C5
:1043800004F11000884202D900241035ADB2B9887A
:1043900005F11000884201D9002425463088010229
:1043A00001EB102082B229462046FFF768FF103447
:1043B000A4B2B61C3278002AC4D1BAE72DE9F04184
:1043C00016460D460446C94F37E07E2A1AD8F868CB
:1043D0007B8881882144994203D9C18800242944DB
:1043E0008DB2C088B9882844884201D90024254666
:1043F00029462046FFF7A8FEF868761C80882044EE
:1044000084B21AE0798804F11000884202D90024AD
:104410001035ADB2B98805F11000884201D90024E9
:1044200025463088010201EB102082B22946204641
:10443000FFF725FF1034A4B2B61C3278002AC4D18D
:1044400077E72DE9F04115460C460646A74F24E0D4
:10445000B98804F11000884202D900241036B6B29F
:10446000798806F11000884201D9002634467E2A58
:1044700007D821463046FFF767FE1034A4B26D1C02
:104480000BE02888010201EB102082B22146304661
:10449000FFF7F5FE1034A4B2AD1C2A78002AD7D15C
:1044A00047E72DE9F04F9946030493FBF2F303F13C
:1044B000010A0D0495FBF9F30025099E0B9C03F1FD
:1044C000010E202864D200FB01F3002B60D0B3F56D
:1044D000806F5DDA02FB09F3002B59D0B3F5804FF2
:1044E00056DA4143CF17824B002C4FF0800B01EB83
:1044F00057772C4615D02DE0002116F804802BFAB2
:1045000001FC18EA0C0F02D04FF0010C01E04FF053
:10451000000C491C89B203F801CB0829EDD3641CB7
:10452000A4B2B4EBE70FE7DB17E0002116F8048034
:104530002BFA01FC18EA0C0F02D04FF0010C01E03D
:104540004FF0000C491C89B203F801CB0829EDD3C8
:10455000641CA4B2B4EBE70FE7DBDFF8948100261C
:10456000A8F5804412E000232F0C00FB07871946B2
:1045700007E007EB134C53449CF800C004F801C05B
:10458000491C9142F5D375441444761C4E45EAD338
:10459000D8E5F0B59C46DDE9054716460025FFF74E
:1045A0005AFC2C20C1060880504A524B0DE00020D6
:1045B00008E014F8011BB94201D1118900E0D1884B
:1045C0001980401CB042F4D36D1C6545EFD386E6DC
:1045D0002DE9F04F8BB09946DDE9145A90460F460D
:1045E00004461646DFF810B156E04049A2194B8840
:1045F0009A4203D907EB0902002497B2898807EB96
:1046000009028A4201D90024274680281FD9288818
:104610004646010201EB102081B203A8FFF728FAF9
:1046200003AA0121CDE90028029110214B46324610
:104630000846FFF736FFCDE900BA4B463246394609
:104640002046FFF7A6FFA01984B2AD1C24E02B4939
:104650002038C2B2C8888B880968584350434FEA53
:10466000E07C00EB5C7001EBE00000900023CDE902
:1046700001834FEA58064B46324618211020FFF7B7
:1046800010FFCDE900BA4B46324639462046FFF7C7
:1046900080FFA01984B26D1C28780028A5D10BB02A
:1046A00050E52DE9F04F8BB09846DDE9145A1646D7
:1046B0000C460746DFF840B062E00C49A2194B886F
:1046C0009A4202D90024BA1997B2898807EB0802E6
:1046D0008A4201D90024274680282BD92888010244
:1046E00001EB102081B203A80AE000009400002032
:1046F000D465002000000260D4250020880000203E
:10470000FFF7B6F903AA0121CDE900280291102193
:10471000434632460846FFF7C4FECDE900BA434699
:10472000324621463846FFF734FF04EB080084B2D6
:10473000AD1C25E045492038C2B2C8888B8809687D
:10474000584350434FEAE07C00EB5C7001EBE00023
:1047500000900023CDE901834FEA560943464A46BB
:1047600018211020FFF79DFECDE900BA43464A46C6
:1047700021463846FFF70DFF04EB080084B26D1C9C
:104780002878002899D18AE73149C86070473048B5
:10479000C06870472E4AD080118170472C4AD38858
:1047A00003801089088070472949C88070472849CC
:1047B00008817047264A01460020D3685288DB886A
:1047C000FFF766BB01B5009801E0401E009000288D
:1047D000FBD108BD00B5012197B00802FCF704FD2C
:1047E0000120019004200390800607900020029091
:1047F00004900590069008210890CDE90901102148
:10480000CDE90B100E9009020F90CDE91001129026
:104810001390149001A81590169008A8FCF7A4F81E
:1048200001210020FCF7D5F917B000BD01231A467D
:10483000FFF711BB10B500222C23DC062380054BAB
:1048400001E01980521C8242FBD310BD8800002079
:10485000940000200000026001004FF0010000D130
:104860000020704710B5012418B9FEF73CF900B9D3
:104870000024204610BD2DE9F0410E460100ADF5A3
:10488000007D1D4614464FF0040019D1B1074FF4C6
:10489000007019D0002780460FE02246641C0123D7
:1048A00069460020FFF7E7FF070008D14246694646
:1048B000304603F0F2FF06F500766D1EEDD2384665
:1048C0000DF5007DBDE8F081CDE90003E30D520256
:1048D0003046FEF7D4FA38B9FEF72AFB0446FEF755
:1048E0008BF90028FBD10CB10420E9E70020E7E7B1
:1048F000F0B50E460146ADF5017D1D0014464FF0A2
:1049000004002CD0002917D1B0074FF4007716D03F
:1049100000200FE03A463146684603F0BEFF2246CB
:10492000641C012369460020FFF7E2FF002803D141
:1049300006F500766D1EEDD20DF5017DF0BDCDE9D9
:104940000073E30D52023046FEF75CFB38B9FEF708
:10495000D8FB0446FEF750F90028FBD10CB1042027
:10496000EAE70020E8E710B5144602004FF0040023
:1049700014D191B101290AD0022902D003290CD106
:1049800003E04FF40070208007E0012004E00549B7
:10499000002307C903F050FF2060002010BD02482B
:1049A0007047000080250020000021462DE9F041DD
:1049B000044600790027F8B1E66A04F13001607816
:1049C000012332468846FFF793FF08B1012713E021
:1049D00000202071206AA169301A88420CD2E57843
:1049E00008E0A06901230644607832464146FFF79B
:1049F0007FFF6D1E022DF4D23846BDE8F08170B500
:104A00000446C06A0E460025B0420FD02046FFF78C
:104A1000CDFF05000AD160780123324604F1300150
:104A2000FFF729FF08B16E1E0125E662284670BD1A
:104A300070B50446FFF7BAFF05004FD12078032870
:104A400045D16079012842D104F13000628900210A
:104A5000064601F0FBFF552084F82E02AA2084F8B8
:104A60002F02522084F8300084F83100612284F84B
:104A70003220412084F83300722184F8141284F823
:104A8000151284F8160284F81722206984F8180297
:104A9000010A84F81912010C84F81A12000E84F825
:104AA0001B02E06884F81C02010A84F81D12010C44
:104AB00084F81E12000E84F81F02E2690123521CC2
:104AC000E26260783146FFF713FF00206071002238
:104AD00060781146FFF747FF00B10125284670BDF9
:104AE0004269891E921E8A4201D800207047826A5C
:104AF000807801FB002070472DE9F0410D46044607
:104B000002290BD36069A84208D920784FF0FF36FC
:104B1000012806D0022833D0032845D0012630468C
:104B20006BE7608905EB5507B7FBF0F0216A01449C
:104B30002046FFF764FF0028F1D16089B7FBF0F150
:104B400000FB11717F1CB7FBF0F0214491F830801D
:104B5000216A01442046FFF752FF0028DFD1608917
:104B6000B7FBF0F100FB1170204490F8301048EAD8
:104B70000120E90701D00609D1E7C0F30B06CEE713
:104B80006089216A4008B5FBF0F001442046FFF738
:104B900036FF0028C3D161896800B0FBF1F201FB48
:104BA00012002044068EBAE76089216A8008B5FBAE
:104BB000F0F001442046FFF722FF0028AFD16189C1
:104BC000A800B0FBF1F201FB1200204490F8301075
:104BD000D0F8310041EA002020F070469FE72DE92F
:104BE000F04716460D460446022902D36069A842E2
:104BF00002D80220BDE8F087207806F0FF084FF0C9
:104C00000109012825D002285FD00328F1D160894D
:104C1000216A8008B5FBF0F001442046FFF7EFFE63
:104C20000028E7D16289A900B1FBF2F302FB13115E
:104C300021444FF07043D1F8312003EA022232437D
:104C400001F8302F130A4B70130C8B70120ECA70C0
:104C500052E0608905EB5507B7FBF0F0216A01448B
:104C60002046FFF7CCFE0028C4D16089B7FBF0F1E5
:104C700000FB1170204430307F1CE90703D001781D
:104C800068F31F1100E03146017084F804906089D8
:104C9000216AB7FBF0F001442046FFF7B0FE002880
:104CA000A8D16189B7FBF1F201FB127121443031C7
:104CB000EA0702D0C6F3071205E00A78C6F3032319
:104CC00002F0F0021A430A7016E06089216A400877
:104CD000B5FBF0F001442046FFF791FE002889D192
:104CE00062896900B1FBF2F302FB13112144320A1D
:104CF00081F8308081F8312084F804907AE72DE93A
:104D0000F0410F460446022916D36069B84213D910
:104D100000261FE039462046FFF7EEFE05001CD0B6
:104D2000012D09D0681C09D0002239462046FFF722
:104D300056FF060011D103E002260EE001260CE02A
:104D40002069411C05D0401C2061607940F00100C1
:104D500060712F466069B842DCD830464DE62DE9D7
:104D6000F0410F00064605D0FFF7C6FE022808D224
:104D7000012042E6F56815B17069A84207D80125FF
:104D800005E0411CF5D071698142F2D83D462C46C0
:104D90007069641CA04202D80224022D0AD3214665
:104DA0003046FFF7A9FE38B1411CE2D00128E0D01F
:104DB000AC42EDD1002020E66FF070422146304633
:104DC000FFF70DFF30B957B1224639463046FFF79D
:104DD00006FF20B101280DD0012420460DE6F46025
:104DE0003069411CF9D0401E3061707940F00100FB
:104DF0007071F2E74FF0FF34EFE770B5C180836860
:104E00000D460446012B3DD020684169994239D9AD
:104E100023B90178032906D1436A23B141898078F7
:104E20004E09464310E00189A9422BD9406A11E09E
:104E3000FFF762FE0346401C22D0022B22D32068DB
:104E4000406998421ED9AD1B2068B5421946EFD281
:104E5000FFF746FEE360A8B121684A895209B5FB15
:104E6000F2F21044206148894009B5FBF0F200FBE2
:104E70001250302202EB401008446061002070BDE7
:104E8000012070BD022070BD2DE9F041C7880446A5
:104E90007F1C38040E46000C33D0216989B320688A
:104EA00042895209B7FBF2F302FB1372002A58D170
:104EB000491C2161E16809B3428983785209B7FB33
:104EC000F2F25B1E1A424CD1FFF716FE054601288E
:104ED0001BD9681C31D020684169A9423BD886B1F2
:104EE000E168FFF73CFF05000DD0012D0DD0681CD7
:104EF00023D02068FFF75AFDF8B908E00089B842CE
:104F00002FD8042079E5072077E5022075E5206891
:104F100000214289303001F099FD29462068FFF7D1
:104F2000DFFD216800264FF00108C8620CE080F820
:104F300004802068FFF73AFD08B101205DE5206894
:104F4000C16A491C761CC16220688178B142EED8E2
:104F5000C16A891BC162E56029462068FFF7C0FD70
:104F60002061E780206841894909B7FBF1F201FB24
:104F70001271302202EB41110844606100203CE5CF
:104F800070B504460D46042020E02068FFF737FD89
:104F900008BB61690A78AAB1C97AE52A01F03F0124
:104FA0000AD02E2A08D00F2906D021F02001082986
:104FB0000AD00021A94210D000212046FFF764FF4B
:104FC00020B108E0042006E00121F3E7216900296F
:104FD000DBD1002801D00021216170BD70B50446ED
:104FE00001260021FFF709FF88B900252169206803
:104FF000FFF705FD58B961690978E5290AD049B17B
:10500000002501212046FFF73FFF0028EED00428AD
:1050100004D004E06D1CB54201D0F2E70720050082
:1050200012D121692068FFF7EAFC05000CD120228B
:105030000021606901F00AFDD4E905010B2201F0AD
:10504000FDFC216801200871284670BD70B504463A
:10505000C188FFF7D2FE050010D121692068FFF753
:10506000CEFC05000AD120220021606901F0EEFC8F
:105070006169E5200870216801200871284670BD2B
:1050800030B5036901F10902EBB1446900202E2516
:10509000235C401C202B08D0052B00D1E5230928D8
:1050A00001D102F8015B02F8013B0B28F0D3E07A52
:1050B0000872207FD4F81D3040EA03200860208B5E
:1050C0008880E08AC8800020107030BD2DE9F0474C
:1050D00089460C6800E0641C21782F29FBD05C29EC
:1050E000F9D085690B222021284601F0AFFC002071
:1050F000024617464FF0080CE15D7F1C202934D989
:105100002F2932D05C2930D02E2901D060450AD316
:10511000BCF1080F36D12E2934D1082091064FF06A
:105120000B0C0A0EE8E7802905D3FF4B42F003027F
:10513000194411F8801CFDA300E05B1C1E7816B119
:105140008E42FAD11EE0A1F14103192B02D842F0A0
:10515000020207E0A1F16103192B03D8203942F0C4
:105160000102C9B22954401CC6E73C44C9F80040BA
:10517000202901D8042100E0002118B12878E52871
:1051800002D003E0062035E505202870BCF1080FA9
:1051900001D19006020E02F00300012801D141F076
:1051A0001001C2F38100012801D141F00801E97228
:1051B00000201FE573B50446019908782F2801D017
:1051C0005C2801D1491C01910025A5600198007857
:1051D000202805D200212046FFF70FFE65617CBD27
:1051E00001A92046FFF772FF0028F8D100212046D0
:1051F000FFF703FEF8B921692068FFF700FCD0B97A
:1052000061690A7872B1CA7A12070ED40B25A269B5
:1052100000236D1E08D311F8013B12F8016B9B1B94
:10522000F7D002E0042006E02BB100212046FFF772
:105230002BFE0028DFD0A169C97A28B10428CED17D
:105240004907CCD405207CBD4907FCD46169C87AE4
:10525000C006F7D5206801F000FCA060C0E710B5DB
:1052600003464FF0FF301C68002C13D0214600E0AD
:10527000491C0A78212A0ED33A2AF9D114F8012BB5
:10528000303A0A2A06D28C4204D1022A02D2491CA0
:105290001046196010BD002010BD10B50446002056
:1052A0002071401EE0622046FFF7A9FB08B10320F1
:1052B00010BDB4F82E02A0F52A41553901D00220C4
:1052C00010BD94F86600B4F8671040EA01219B48CD
:1052D000B0EB012F08D094F88210B4F8832041EA93
:1052E0000221B0EB012F01D1002010BD012010BD23
:1052F0002DE9FF474FF0000A0746C0F800A0164608
:105300000846FFF7ACFF050002D50B2004B071E49E
:105310008B4850F825408CB13C60207820B16078F3
:10532000FFF79AFAC1070BD084F800A0E8B26070CA
:10533000FFF798FAC10708D00320E7E70C20E5E75C
:105340000EB1400704D40020E0E71EB1400701D5AC
:105350000A20DBE7607804F10A020221FFF703FB71
:10536000A0BB6089B0F5007F31D3B0F5805F2ED847
:10537000002529462046FFF790FF012822D1002072
:105380006E4604EB001191F8F22101F5F7712AB194
:105390000A7AD1F8091042EA012100E0002146F81A
:1053A0002010401C0428ECD3002756F8275025B1C4
:1053B00029462046FFF771FF00E0022048B17F1C1C
:1053C000042FF2D3032802D0F0BB02E0FFE7012054
:1053D0009CE7B4F83B006289904262D1B4F8460081
:1053E00028B994F85400D4F8551040EA0120A0617F
:1053F00094F840708146E770012F01D0022F50D100
:1054000094F83D604743A670F6B1701E064248D13D
:10541000B4F841104FEA521CB1FBFCF00CFB101029
:10542000218188B9B4F8430028B994F85000D4F821
:10543000513040EA0320E38F33B1B1FBFCFC03EBB6
:105440000708C444604500E02BE02AD3A0EB0C0021
:10545000B0FBF6F028B3012640F6F678404500D3BD
:1054600002264FF6F678404500D30326801CAC4454
:10547000C4F828C02B446061C4E90753032E12D03E
:1054800079B1D9196162022E18D000F0010100EB48
:10549000400001EB5000401E1044B0FBF2F14945C2
:1054A0000ED90D2032E70029FBD194F85C10D4F816
:1054B0005D30800041EA03216162ECE74000EAE7E9
:1054C0004FF0FF302061E06080206071032E44D1F6
:1054D000B4F86000012840D12046691CFFF78FFA1C
:1054E00008BB84F805A0B4F82E02A0F52A4155396E
:1054F00033D194F83000D4F8311040EA012011493A
:1055000088422AD194F81402D4F8151240EA0120F6
:105510000D49884221D194F81802D4F8191240EAB2
:105520000120206112E018E0E0B00008222A2B2CB4
:105530003A3B3C3D3E3F5B5D7C7F00000046415472
:10554000A8000020525261417272416194F81C021D
:10555000D4F81D1240EA0120E060FA49267008885C
:10556000401C0880E080EEE610B560B1016851B1E2
:105570000A7842B1CA888088824204D14878FFF70D
:105580006BF9C00700D0092010BD17B581B01446D3
:10559000029800906846FFF762FE002802DA0B20AE
:1055A00004B010BDE74B1B1D002253F8201001B1C1
:1055B0000A700199002900D00A7043F8201001D028
:1055C000012C01D00020EBE7002202A901A8FFF77F
:1055D0008FFEE5E72DE9F7478BB006000ED04FF0C0
:1055E000000802F01F0727F001020CA96846C6F860
:1055F0000080FFF77DFE050003D088E009200EB093
:10560000C1E507A8069068460C99FFF7D3FD059CF5
:10561000050001D104B9062517F01C0F4ED055B175
:10562000042D03D16846FFF7D9FC0546059C47F0D9
:10563000080745B16BE0E07A10F0110F48D1780708
:1056400001D5082563E0380748D5FFF7A8F9A0730E
:10565000010AE173020C2274030E6374A075E175F4
:105660002276637684F80B8084F81C8084F81D8091
:1056700084F81E8084F81F802146009801F0EDF91F
:1056800081460021204601F0F1F900990120B9F18D
:10569000000F087120D000984946D0F82CA0FFF7E1
:1056A0002EFB050033D10099A9F10100C8605146D5
:1056B0000098FFF7A4F905000CD028E03DBBE07A84
:1056C000C10601D5042522E0B90703D5C00701D0E2
:1056D00007251CE0380701D547F020070098214630
:1056E000C06AC6E90704B77186F807804746009884
:1056F00001F0B3F93061207FD4F81D1040EA012099
:10570000C6E90270B76100983060C088B080284652
:1057100075E72DE9F84F894600219A46164604465A
:105720001960FFF721FF002812D1E07900280FD17E
:10573000A079C0070BD0D4E90210401A04F124016B
:105740004FF0010B0091864200D906468BE00720FE
:10575000BDE8F88F2268A0685189B0FBF1F301FB26
:105760001303002B60D1B0FBF1F193785B1E19405D
:1057700011F0FF0509D108B310466169FFF7BCF9C4
:1057800002281DD3411C49D0606161692068FFF780
:10579000A7F9A8B100EB050820684189B6FBF1F72D
:1057A00027B38178EA198A4200D94F1B40783B46DB
:1057B00042464946FFF75FF880BB04E02069DFE717
:1057C0000220E071C4E7A07940060BD5A169A1EBE6
:1057D0000800B84206D221684A89009900FB02906D
:1057E00001F02CF9206845897D4332E0A2694245E9
:1057F00018D0A179490609D5407801230099FFF70F
:1058000077F858B9A07920F04000A07120680123F2
:10581000424640780099FFF72EF818B184F807B097
:10582000012095E7C4F818802068A1684089B1FB81
:10583000F0F200FB1212851AB54200D93546B1FBD1
:10584000F0F200FB121001192A464846243101F0FB
:10585000F5F8A068A9442844A060DAF800004119CE
:10586000761BCAF80010002E7FF474AF00206FE79B
:105870002DE9F84F894600219A46154604461960DD
:10588000FFF772FE002806D1E079002803D1A07945
:10589000800701D407205BE7A06804F124014219C6
:1058A0004FF0010B0091824267D39FE02268A0680D
:1058B0005189B0FBF1F301FB1303002B73D1B0FB53
:1058C000F1F193785B1E194011F0FF0612D108B177
:1058D000616902E0206928B900211046FFF73FFA0C
:1058E00000284AD001282FD0411C55D06061216981
:1058F00001B92061A07940060BD520680123A26977
:1059000040780099FEF7F4FFA8BBA07920F0400092
:10591000A07161692068FFF7E3F8A8B100EB060801
:1059200020684189B5FBF1F737B38178F2198A42D3
:1059300000D98F1B40783B4642464946FEF7D8FFC8
:10594000C8B904E0A40000200220E07100E7A169CA
:10595000A1EB0800B8420AD221684A8900FB0291F3
:10596000009801F06BF8A07920F04000A071206849
:1059700046897E4330E00FE000E03AE0A26942450C
:105980000FD0D4E9021291420BD240780123424653
:105990000099FEF770FF20B184F807B00120D7E628
:1059A00001E0C4F818802068A1684089B1FBF0F2DA
:1059B00000FB1212861AAE4200D92E46B1FBF0F25D
:1059C00000FB1210204432464946243001F036F8DC
:1059D000A07940F04000A071A068B1443044A060BC
:1059E000DAF800008119AD1BCAF80010002D7FF411
:1059F0005DAFD4E90201884200D9E060A07940F0AF
:105A00002000A0710020A3E670B50446FFF7ACFDAE
:105A100000280ED1A1798A060BD548060ED520683C
:105A2000012304F124014078A269FEF761FF08B167
:105A3000012070BDA07920F04000A071E1692068CC
:105A4000FEF7DDFF0028F4D1256AE87A40F0200057
:105A5000E872207B2877A089000A6877E068000C4C
:105A6000A877E068000EE8772846216900F0FEFF7D
:105A7000FEF795FFA875010AE975010C2976000E5D
:105A800068760020A874E874A07920F02000A07146
:105A90002168012008712068BDE87040FEF7C8BF8A
:105AA00010B50446FFF7B0FF002806D12046FFF7E7
:105AB0005BFD002801D10021216010BD2DE9F047D8
:105AC0000D460446FFF750FD5FEA00087BD1E07900
:105AD000002878D1E068A84203D2A179890700D4D0
